:020000040800F2
:10000000680A0020A90100088D17000841140008A3
:1000100015170008E90D0008392400080000000049
:10002000000000000000000000000000A320000805
:100030007511000800000000391B00088D21000820
:10004000C3010008C3010008C3010008C301000880
:10005000C3010008C3010008C3010008C301000870
:10006000C3010008C3010008C3010008C301000860
:10007000C3010008C3010008C3010008C301000850
:10008000C3010008C3010008C3010008C301000840
:10009000C3010008C3010008C3010008C301000830
:1000A000C3010008C3010008C3010008C301000820
:1000B000C3010008C3010008C3010008C301000810
:1000C000C3010008C3010008C3010008C301000800
:1000D000C3010008F121000811220008C301000833
:1000E000C3010008C3010008C301000800F002F8C2
:1000F00000F04BF80AA090E8000C82448344AAF177
:100100000107DA4501D100F040F8AFF2090EBAE874
:100110000F0013F0010F18BFFB1A43F0010318473B
:10012000645A0000845A0000103A24BF78C878C18D
:10013000FAD8520724BF30C830C144BF04680C60ED
:10014000704700000023002400250026103A28BF35
:1001500078C1FBD8520728BF30C148BF0B60704739
:10016000642900F0C180732900F077820020704775
:100170001FB500F077FB04000020002103F03AFFD8
:10018000401C60601FBD10B510BD00F046FB11465D
:10019000FFF7EEFF02F036FC00F076FB03B4FFF74A
:1001A000F2FF03BC02F0CEFB094880470948004734
:1001B000FEE7FEE7FEE7FEE7FEE7FEE7FEE7FEE717
:1001C000FEE7FEE704480549054A064B7047000074
:1001D00091210008ED00000868040020680A002052
:1001E0006806002068060020704700000FB404492C
:1001F00010B503AA029800F035FA10BC5DF814FBA4
:10020000140000200FB41CB5074B06AA7B446946B6
:100210000090059800F0F7F90020694600F006FA12
:100220001CBC5DF814FB00001D0400002DE9F0412A
:100230000E460446002020622046E168884730B31D
:10024000252805D0D4E901219047206A401CF2E717
:10025000E168204600278847050018D0A5F1410035
:10026000192802D820354FF4006732462946204627
:100270002760FFF775FF40B1012804D0F61D26F076
:1002800007060836D8E7361DD6E72846DAE7206A9B
:10029000BDE8F08170B50C460546012A05D02878E6
:1002A000800600D5EA69002302E0012305E05B1C1B
:1002B000934202D2E05C0028F9D1A869E618C01A7E
:1002C000A861286A184428622846AFF3008004E039
:1002D000D5E9012114F8010B9047B442F8D3284620
:1002E000AFF3008070BD00002DE9F0410646002408
:1002F00010687529314616A510D0AFF3008000288C
:1003000002DA404213A507E031688A0701D512A539
:1003100002E0490704D511A5012401E0AFF30080F4
:1003200000210A2206F1240709E0B0FBF2FCB0FB31
:10033000F2F302FB1C00303078541846491C0028A8
:10034000F3D123462A463046BDE8F04100F0FDB81F
:10035000000000002D0000002B0000002000000025
:1003600070B5064600F0E2F80468054630460A22F9
:10037000002100F089F92C6070BD401ECAB210F84F
:10038000011F8A4202D00029F9D10020704730B500
:1003900005460B462A4613F8014B12F8010B08B12B
:1003A000A042F8D01CB1002802D06D1CF1E728460D
:1003B00030BD032A40F2308010F0030C00F01580AD
:1003C00011F8013BBCF1020F624498BF11F801CB58
:1003D00000F8013B38BF11F8013BA2F1040298BFBD
:1003E00000F801CB38BF00F8013B11F0030300F027
:1003F0008381083AC0F0088051F8043B083A51F86C
:1004000004CBA0E80810F5E7121D5CBF51F8043BCF
:1004100040F8043BAFF30080D20724BF11F8013B42
:1004200011F801CB48BF11F8012B24BF00F8013BA4
:1004300000F801CB48BF00F8012B70474FF00002D5
:100440000429C0F0128010F0030C00F01B80CCF1E6
:10045000040CBCF1020F18BF00F8012BA8BF20F854
:10046000022BA1EB0C0100F00DB85FEAC17C24BFA8
:1004700000F8012B00F8012B48BF00F8012B704752
:100480004FF0000200B5134694469646203922BF2D
:10049000A0E80C50A0E80C50B1F12001BFF4F7AF78
:1004A000090728BFA0E80C5048BF0CC05DF804EB5A
:1004B000890028BF40F8042B08BF704748BF20F8C8
:1004C000022B11F0804F18BF00F8012B704710B5B8
:1004D000044610F0030F08BF11F0030F40F0158021
:1004E0004FF0013E121FC0F20E8051F8043BA3EB07
:1004F0000E0C2CEA030C1CEACE1C08BF40F8043B8F
:10050000F0D0A1F1040102F10402521E08DB11F83F
:10051000013B002B00F8013BF7D11146FFF78EFF9E
:10052000204610BD704770477047704700487047BD
:100530000804002010B5FFF7F9FF006810BD10B5E2
:100540000446FFF7F3FF046010BD2DE9F0470D46A8
:1005500099469246044600F124080168880604D5AD
:10056000E06921F01001216000E00120A84201DDD6
:10057000471B00E00027A1697A1902EB0900081A5D
:10058000A0612078C00602D42046AFF30080002688
:1005900008E0D4E901211AF806009047206A401CBF
:1005A000761C20624E45F4DB2078C0060AD5204632
:1005B000AFF3008006E0D4E9012130209047206AA3
:1005C000401C2062381EA7F10107F4DC07E0D4E9E3
:1005D000012118F805009047206A401C2062281E5F
:1005E000A5F10105F3DC2046AFF30080207800067A
:1005F00002D50220BDE8F0870120FBE701694A1C13
:1006000002610878704700B58FB0CDE90131002153
:10061000059105497944CDE9031011466846FFF775
:1006200005FE0FB000BD0000E5FFFFFF0A6802F8FD
:10063000010B0A60704710B5436913B1AFF3008036
:1006400001E0FFF727FE012010BD127800F1240120
:100650000A7000224A700122EDE711684FF0FF3264
:10066000E9E70000074B70B50D467B44FFF7CBFF71
:100670000446284600F0CDF810B14FF0FF3070BDB1
:10068000204670BD7B2300002DE9F04791460F46C0
:1006900080460446002614F8015B2DB100F062F894
:1006A0000068405DC007F6D12B2D02D02D2D18D04B
:1006B000641E4A463946204600F05CF827B1396886
:1006C000A14201D1C7F800804FF0020471050BD59B
:1006D0004042002803DDFFF729FF0460A007BDE8C2
:1006E000F08746F48066E4E70028F8DAFFF71EFF9B
:1006F00004606FF00040F2E710B5203AC0F00B80C4
:10070000B1E81850203AA0E81850B1E81850A0E815
:100710001850BFF4F5AF5FEA027C24BFB1E818506F
:10072000A0E8185044BF18C918C0BDE810405FEADF
:10073000827C24BF51F8043B40F8043B08BF70475B
:10074000D20728BF31F8023B48BF11F8012B28BF60
:1007500020F8023B48BF00F8012B70470048704763
:100760000804002010B500F07DF8001D10BD00BF8A
:10077000853800002DE9F05F824615468B4600273C
:100780000AF10104B9460078302801D09DB113E088
:1007900014F8010B0127782803D0582801D045B15F
:1007A0000AE00DB1102D07D1002714F8010B102518
:1007B00002E0082500E00A250026B0460EE005FB11
:1007C000080005FB06F101271FFA80F801EB10462F
:1007D000B6F5803F00D3B94614F8010B294600F066
:1007E00045F80028EBDABBF1000F05D00FB1641E0D
:1007F00000E05446CBF80040B9F1000F06D0FFF7F7
:1008000095FE02210160C81EBDE8F09F48EA06403F
:10081000FAE7007B00F0800070477546FFF79EFF07
:10082000AE4605006946534620F00700854618B0DD
:1008300020B5FFF7C7FCBDE820404FF000064FF0A1
:1008400000074FF000084FF0000B21F00701AC4605
:10085000ACE8C009ACE8C009ACE8C009ACE8C00924
:100860008D46704700487047280400203A2800D27F
:10087000303820F02002412A01D3A2F1370088420B
:1008800001D34FF0FF30704710B50446AFF300803E
:100890002046BDE81040FFF781BC00004FF0013C4E
:1008A00050F8042B51F8043B9A4221D1A2EB0C03DF
:1008B000934313EACC1317D150F8042B51F8043B9F
:1008C0009A4215D1A2EB0C03934313EACC130BD13C
:1008D00050F8042B51F8043B9A4209D1A2EB0C03C7
:1008E000934313EACC13DBD04FF00000704700BFF6
:1008F000D01A01BAB1FA81F101F0180122FA01F01F
:10090000CB40C1F12001DBB2C0B2C01A2CFA01F316
:10091000D11A914311EAC311E6D1704721B182681F
:1009200042F00102826003E0826822F001028260EC
:100930007047014600208A6802F004020AB10120D3
:1009400000E0002070470146C86C80B27047024644
:10095000002013680B400BB1012000E0002070471D
:10096000014600208A6802F008020AB1012000E076
:100970000020704770B504460D462B4601222146E3
:10098000084800F039F80121064800F096F800BF49
:1009900002210448FFF7DBFF0028F9D00148FFF7E8
:1009A000D2FF70BD0024014030B502460020002374
:1009B00050680F4C20400D790C6844EA0524204310
:1009C000506090680B4C2040D1E902542C434D7983
:1009D00044EA450420439060D06A20F470000C7C07
:1009E000641EE4B2234340EA0350D06230BD0000ED
:1009F000FFFEF0FFFDF7F1FFF0B504460D460020C5
:100A00000021092D11DDE068A5F10A0606EB460775
:100A1000072606FA07F18843A5F10A0606EB460603
:100A200003FA06F10843E0600CE0206905EB450796
:100A3000072606FA07F1884305EB450603FA06F197
:100A400008432061072A0FDA606B561E06EB860703
:100A50001F2606FA07F18843561E06EB860605FA9E
:100A600006F10843606322E00D2A0FDA206BD61FDF
:100A700006EB86071F2606FA07F18843D61F06EB0A
:100A8000860605FA06F10843206310E0E06AA2F149
:100A90000D0606EB86071F2606FA07F18843A2F12A
:100AA0000D0606EB860605FA06F10843E062F0BD86
:100AB000816841F008018160704721B1826842F489
:100AC000A002826003E0826822F4A0028260704784
:100AD000816841F0040181607047000000B585B075
:100AE0000121480201F046F84FF4004001F026F8D9
:100AF0000020009003904FF46020029000208DF8B9
:100B000005008DF8040001208DF8100069460D489D
:100B1000FFF74AFF01210B48FFF700FF0948FFF7E5
:100B2000C7FF00BF0748FFF71BFF0128FAD00548A1
:100B3000FFF7CEFF00BF0348FFF7FBFE0128FAD006
:100B400005B000BD0024014010B50446224605A1B1
:100B50000548FFF757FB044801F05AFCC82001F094
:100B600020FF10BD257300000803002008B50121F7
:100B7000042000F0FFFF10208DF803002020ADF8C6
:100B8000000003208DF802006946044800F0F3FAE3
:100B90002021024800F0CDFB08BD00000008014004
:100BA00010B52021014800F0C4FB10BD0008014031
:100BB00010B52021014800F0BAFB10BD000801402B
:100BC00010B500200A49086001F060F800200949CA
:100BD000C1F8B001022001F0F0FE012004490860D4
:100BE000022001F0EAFE00200249C1F8B40110BD64
:100BF000B48121420080214210B500200A490860DA
:100C000001F044F801200949C1F8B001022001F0C7
:100C1000D4FE012004490860022001F0CEFE00202D
:100C20000249C1F8B40110BDB481214200802142C3
:100C300070B50546002401F017F8002616E00020E4
:100C40000F490860022001F0B8FE01200D49C1F8EB
:100C5000B4016006040E0A488438006808B1601CBC
:100C6000C4B2012001F0A9FE701CC6B2082EE6DB5A
:100C700015B9FFF7C1FF01E0FFF7A2FF204670BDE5
:100C8000B48121420080214270B5044600F0FEFF8D
:100C900000201349086000251EE0E00920B1012072
:100CA0000F49091F086003E000200D49091F086073
:100CB0006006040E022001F080FE01200849086051
:100CC000022001F07AFE00200649C1F8B40102209A
:100CD00001F073FE681CC5B2082DDEDB70BD00009C
:100CE000B48121420080214210B500F0CFFF0120E5
:100CF000094908600949C1F8B401042001F05DFE0A
:100D0000002005490860042001F057FE0020034937
:100D1000C1F8B40110BD0000B08121420080214221
:100D200010B500F0B3FF0020084908600849C1F879
:100D3000B001042001F041FE01200449086004498B
:100D4000C1F8B001042001F038FE10BDB481214289
:100D50000080214210B5002400F086FF01200E49DA
:100D6000086001F02AFE01200C49C1F8B40101F02D
:100D700024FE07E0601CC4B2FA2C03DDFFF7D0FFAD
:100D8000012010BD0448803800680028F2D10249D3
:100D9000091D086000BFF4E7B081214200802142B4
:100DA00008B50121082000F0E5FE4FF44050ADF8F1
:100DB000000010208DF8030003208DF80200694622
:100DC000084800F0D8F94FF44051064800F0B1FA55
:100DD000012001F0D2FD072001F0CFFD112001F02C
:100DE000CCFD08BD000C014000BFFEE7F0B599B096
:100DF000064679A13046FFF7CAFA044664B10B34BF
:100E000022212046FFF7B9FA054625B12A1B2146C3
:100E10006846FFF75CFB00BF9DF8000020B971A099
:100E2000FFF7E4F919B0F0BD00208DF82400314639
:100E300073A0FFF7DBF9002772A13046FFF7A7FA8E
:100E4000B8B172A13046FFF7A2FA30B10120714962
:100E5000087071A0FFF7CAF90AE072A13046FFF7E7
:100E600096FA28B100206B49087070A0FFF7BEF910
:100E7000012771A13046FFF78AFAB8B163A1304665
:100E8000FFF785FA30B101206E4908706EA0FFF7B8
:100E9000ADF90AE063A13046FFF779FA28B10020E6
:100EA000684908706BA0FFF7A1F901276CA13046D3
:100EB000FFF76DFAB8B155A13046FFF768FA30B1C7
:100EC00001206949087069A0FFF790F90AE055A16F
:100ED0003046FFF75CFA28B100206349087066A02D
:100EE000FFF784F9012767A13046FFF750FAB8B140
:100EF00067A13046FFF74BFA30B100206549087012
:100F000065A0FFF773F90AE066A13046FFF73FFAE4
:100F100028B101205F49087063A0FFF767F9012736
:100F200065A13046FFF733FA90B166A13046FFF76E
:100F30002EFA05465DB108352846FFF711FA6449D7
:100F400008700846017863A0FFF750F9012700BF39
:100F500064A13046FFF71BFA90B15AA13046FFF763
:100F600016FA05465DB108352846FFF7F9F95F49DD
:100F70000880084601885EA0FFF738F9012700BF06
:100F80005FA13046FFF703FA90B14EA13046FFF75C
:100F9000FEF905465DB108352846FFF7E1F95B49E2
:100FA0000880084601885AA0FFF720F9012700BFF2
:100FB00017B101205A49087069465AA0FFF716F97F
:100FC0006B465AA262496348FFF71CF96148FFF774
:100FD000BBFD00BF26E70000726571756573745F25
:100FE00069643D0072656365697665207265717537
:100FF0006573745F6964206661696C0D0A000000A6
:101000002573000066616E5F736574006F70656EB6
:10101000000000001A00002046616E204F4E0D0AAD
:1010200000000000636C6F736500000046616E2075
:101030004F46460D0A000000616C61726D5F73657A
:10104000740000001B000020416C61726D204F4E47
:101050000D0A0000416C61726D204F46460D0A007A
:101060006C65645F736574001C0000204C4544206F
:101070004F4E0D0A000000004C4544204F46460DDF
:101080000A0000006D6F64655F7365740000000006
:10109000414300001D0000204D6F646520417574C0
:1010A0006F0D0A004D4300004D6F6465204D616E69
:1010B00075616C0D0A00000074656D705F73657476
:1010C000000000002276616C7565223A0000000085
:1010D0001F00002054656D70204D61783A20256412
:1010E0000D0A00006761735F7365740020000020C3
:1010F000476173204D61783A2025640D0A00000095
:101100006C696768745F73657400000022000020DA
:101110004C69676874204D696E3A2025640D0A0099
:101120001E00002025730D0A0000000036396533CB
:101130003230313663303063636236643462346334
:10114000663137665F6573703832363600000000EE
:10115000E85900080803002010B500200349087072
:101160004FF400710248FFF769F910BD1800002024
:101170000801002070472DE9F041024600250026B5
:10118000002000230024002791F803C00CF00F0575
:1011900091F803C00CF0100CBCF1000F03D091F8D3
:1011A00002C04CEA050591F800C0BCF1000F31D037
:1011B000146800202BE04FF0010C0CFA00F3B1F89A
:1011C00000C00CEA03069E4220D183004FF00F0CB2
:1011D0000CFA03F7BC4305FA03FC4CEA040491F84B
:1011E00003C0BCF1280F06D14FF0010C0CFA00FC33
:1011F000C2F814C00AE091F803C0BCF1480F05D151
:101200004FF0010C0CFA00FCC2F810C0401C08287A
:10121000D1D31460B1F800C0BCF1FF0F34DD5468C5
:1012200000202EE000F1080C4FF0010808FA0CF342
:10123000B1F800C00CEA03069E4221D183004FF0B2
:101240000F0C0CFA03F7BC4305FA03FC4CEA040448
:1012500091F803C0BCF1280F05D100F1080C08FA81
:101260000CF8C2F8148091F803C0BCF1480F07D104
:1012700000F1080C4FF0010808FA0CF8C2F81080D1
:10128000401C0828CED35460BDE8F081F0B50A4672
:10129000002300240021002500F00046B6F1004F95
:1012A00002D11D4EF16901E01B4E7168C0F3034588
:1012B00083B200F44016B6F5401F08D121F07061EA
:1012C000154E766826F07066134F7E6012E000F4CB
:1012D0008016B6F5801F06D1032606FA05F4A14351
:1012E00041F0706106E0460D360103FA06F6B1439F
:1012F00041F0706122B1460D360103FA06F6314322
:1013000000F00046B6F1004F02D1034EF16101E05A
:10131000014E7160F0BD0000000001400246002057
:1013200093680B400BB1012000E000207047416141
:101330007047016170470AB1016100E04161704787
:101340002DE9FC4104460D4616461F462B46224613
:1013500009490A48CDE90067FEF754FF0748FFF73F
:10136000F3FB00BF06A10748FFF711F80028F9D0EA
:10137000FFF7F2FEBDE8FC81BC5A0008080300201C
:101380004F4B0000080100202DE9FC4104460D46AA
:1013900016461F462B46224609490A48CDE90067F2
:1013A000FEF730FF0748FFF7CFFB00BF06A1074855
:1013B000FEF7EDFF0028F9D0FFF7CEFEBDE8FC8177
:1013C000345A0008080300204F4B00000801002099
:1013D00000B5C1B0C82001F0E4FA10A11348FEF72F
:1013E000D6FFB0B112A11148FEF7D1FF60B111488C
:1013F00002780E4901A8FEF7DCFF01A90EA0FEF756
:10140000F5FE01A8FFF7F2FC4FF4807101A8FFF789
:1014100037F8FFF7A1FE41B000BD00002B4D51543D
:1014200054535542524543563A00000008010020EB
:101430000D0A00001800002025730D0A00000000AE
:1014400000BFFEE710B5002480213248FFF766FF99
:1014500068B9142001F0A5FA00BF80212D48FFF7DC
:101460005DFF0028F9D0142001F09BFA012401212E
:101470002948FFF753FF68B9142001F092FA00BF22
:1014800001212548FFF74AFF0028F9D0142001F078
:1014900088FA022402212048FFF740FF68B914208F
:1014A00001F07FFA00BF02211B48FFF737FF002839
:1014B000F9D0142001F075FA03244FF48061164826
:1014C000FFF72CFF70B9142001F06BFA00BF4FF446
:1014D00080611148FFF722FF0028F8D0142001F0A6
:1014E00060FA04244FF400610B48FFF717FF70B94E
:1014F000142001F056FA00BF4FF400610648FFF7D0
:101500000DFF0028F8D0142001F04BFA05242046E6
:1015100010BD000000080140000C014008B5012189
:10152000082000F027FB0121042000F023FB4820C5
:101530008DF8030003208DF802008020ADF8000034
:1015400069461148FFF717FE0120ADF80000694613
:101550000E48FFF710FE0220ADF8000069460B4868
:10156000FFF709FE4FF48060ADF8000069460748B8
:10157000FFF701FE4FF40060ADF800006946034834
:10158000FFF7F9FD08BD000000080140000C014014
:1015900010B502210148FFF7CCFE10BD0008014044
:1015A00010B502210148FFF7C2FE10BD000801403E
:1015B00010B540210148FFF7BCFE10BD00080140F6
:1015C00010B540210148FFF7B2FE10BD00080140F0
:1015D00008B50121042000F0CDFA10208DF8030099
:1015E0004220ADF8000003208DF80200694604484F
:1015F000FFF7C1FD42210248FFF79BFE08BD000036
:101600000008014010B505210420FFF7B3F910BD13
:101610002DE9F04F87B0002500270FE0FFF7F2FF1C
:101620008346584603F06AFC8046294603F0FAFADE
:101630000546052001F0B5F9781CC7B20A2FEDDB8D
:101640002549284603F05CFB05462449284603F05B
:101650009DFC07464FF08B4103F052FB04464FF0D0
:101660007C51204603F092FC074621461B4803F0BC
:101670008BFD8046394603F043FB0646DFF8589061
:101680004946304603F03CFB019003F09FFA4FF0CF
:101690002042134BCDE9020101F0F8FE07464FF05E
:1016A000C042104B02F082FFCDE9040102F0B8FC09
:1016B00082460021504603F035FC01D24FF0000A6B
:1016C0000949504603F02EFD01D2DFF81CA0504618
:1016D00007B0BDE8F08F0000000020410000A040EE
:1016E000438B01C066665C4000007A4408B5012166
:1016F000082000F03FFA1020ADF8000000208DF81F
:10170000030069460248FFF736FDFFF7E7F908BD19
:10171000000C014000BFFEE708B50121082000F0E1
:1017200029FA10208DF803000820ADF800000320EE
:101730008DF8020069460548FFF71DFD08210348A2
:10174000FFF7F7FD00200249087008BD000C0140BA
:101750001900002010B50020034908700821034833
:10176000FFF7E7FD10BD000019000020000C01404C
:1017700010B501200349087008210348FFF7D7FD81
:1017800010BD000019000020000C0140704700004F
:1017900070B5002100230F22C47804B3154C2468CF
:1017A00004F4E064C4F5E064210AC1F10403CA4012
:1017B000447804FA03F184781440214309010E4C63
:1017C0000678A155047804F01F050124AC40057883
:1017D0006D11AD0005F1E025C5F8004109E0047880
:1017E00004F01F050124AC40044D0678761145F83D
:1017F000264070BD0CED00E000E400E080E100E078
:1018000070B500240EE00021204600F0F4F8002519
:1018100004E0002000F080F9681CC5B2802DF8DBE0
:10182000601CC4B2082CEEDB70BD000008B50121BD
:10183000082000F09FF914208DF8030003208DF894
:1018400002004FF48070ADF8000069460A48FFF7C7
:1018500092FC4FF40070ADF8000069460648FFF7AF
:101860008AFC012211020448FFF765FD01225102A2
:101870000148FFF760FD08BD000C014070B505464A
:10188000002419E080202041284008B1012000E018
:10189000002002464FF400710E48FFF74CFD012274
:1018A00011020C48FFF747FD00224FF480710948F0
:1018B000FFF741FD601CC4B2082CE3DB01221102DA
:1018C0000448FFF738FD00224FF480710148FFF70C
:1018D00032FD70BD000C014010B5012251020A48D2
:1018E000FFF729FD012211020748FFF724FD00221E
:1018F0004FF400710448FFF71EFD00224FF4807181
:101900000148FFF718FD10BD000C014010B5002282
:101910004FF400710648FFF70EFD01221102044842
:10192000FFF709FD012251020148FFF704FD10BD38
:10193000000C014070B5002406E0002500E06D1C9D
:10194000B5F57A7FFBD3641CB4F57A7FF5D3FFF746
:101950006DFFAE2000F0D0F8D52000F0CDF880204B
:1019600000F0CAF8A82000F0C7F83F2000F0C4F843
:10197000D32000F0C1F8002000F0BEF8402000F0B5
:10198000BBF8A12000F0B8F8C82000F0B5F8DA20C4
:1019900000F0B2F8122000F0AFF8812000F0ACF8AF
:1019A000CF2000F0A9F8D92000F0A6F8F12000F02F
:1019B000A3F8DB2000F0A0F8302000F09DF8A42070
:1019C00000F09AF8A62000F097F88D2000F094F827
:1019D000142000F091F8AF2000F08EF8FFF710FF10
:1019E00070BD10B50246012000E050430B1EA1F16E
:1019F0000101FAD110BD70B505460C4645F0B000A6
:101A000000F07AF8102141EA141000F075F804F0A3
:101A10000F0000F071F870BD2DE9F04105460E464B
:101A20001746721ED206110E6A1E5206100EFFF7DE
:101A3000E2FF002409E0A7F12001134A02EB0111A3
:101A4000085D00F069F8601CC4B2082CF3DB721E5C
:101A5000D206110E6A1E012303EB4202D0B2FFF739
:101A6000CAFF00240BE0A7F12001074A02EB011294
:101A700004F10801505C00F04FF8601CC4B2082C5F
:101A8000F1DBBDE8F0810000625300082DE9F0476A
:101A900080460E4617461D46002415E0281B411EB1
:101AA0000A20FFF79EFFB7FBF0F00A21B0FBF1F22E
:101AB00001FB120000F130093019C1B24A4640461C
:101AC000FFF7AAFF601CC4B2AC42E7DBBDE8F087B9
:101AD0002DE9F04107460E461546002407E02A5D31
:101AE0003019C1B23846FFF797FF601CC4B2285DB9
:101AF0000028F4D1BDE8F08110B50446FFF7ECFEF4
:101B00007820FFF7BBFE0020FFF7B8FE2046FFF766
:101B1000B5FEFFF7FBFE10BD10B50446FFF7DCFE77
:101B20007820FFF7ABFE4020FFF7A8FE2046FFF726
:101B3000A5FEFFF7EBFE10BD704700000146002038
:101B4000034A506820F4404008435060704700004A
:101B50000010024029B1064AD2690243044BDA61FF
:101B600004E0034AD2698243014BDA617047000006
:101B70000010024029B1064A92690243044B9A615F
:101B800004E0034A92698243014B9A617047000066
:101B90000010024030B500210022002400232D4D0A
:101BA0006D6805F00C0121B1042905D0082923D165
:101BB00005E0294D056022E0274D05601FE0254D19
:101BC0006D6805F47012234D6D6805F480340225AC
:101BD00005EB92421CB9214D554305600BE01D4DAC
:101BE0006D6805F400351DB11C4D5543056002E0DC
:101BF000194D5543056002E0174D056000BF00BF59
:101C0000144D6D6805F0F0010909154D6B5C056810
:101C1000DD4045600F4D6D6805F4E061090A104D27
:101C20006B5C4568DD4085600A4D6D6805F4605168
:101C3000C90A0B4D6B5C4568DD40C560054D6D689C
:101C400005F44041890B074D6B5CC568B5FBF3F5A6
:101C5000056130BD0010024000127A0000093D000D
:101C6000000000201000002008B54FF48050ADF8AF
:101C7000000003208DF8020048208DF8030069461B
:101C80000148FFF778FA08BD000C014008B54FF491
:101C90008050ADF8000003208DF8020010208DF870
:101CA000030069460148FFF766FA08BD000C0140D1
:101CB00010B5044600F0C8F8882000F0F9F800F0EC
:101CC00027F8200A00F0F4F800F022F8E0B200F063
:101CD000EFF800F01DF800F0D1F8322000F061FEBE
:101CE00010BD000010B580210848FFF720FB4021FF
:101CF0000648FFF71EFB062000F05FFE4021034868
:101D0000FFF715FB062000F058FE10BD000C014047
:101D100010B500F03BF840211148FFF708FB4021C7
:101D20000F48FFF706FB062000F047FE05E0601CA9
:101D300084B2642C01D1002010BD80210848FFF737
:101D4000EDFA08B1642CF2DB40210548FFF7EFFA09
:101D5000062000F032FE00F02BF80120ECE7000036
:101D6000000C014010B580210748FFF7E2FA40213E
:101D70000548FFF7DEFA062000F01FFE402102486A
:101D8000FFF7D5FA10BD0000000C014008B5802017
:101D9000ADF8000003208DF8020048208DF8030004
:101DA00069460248FFF7E7F908BD0000000C014052
:101DB00008B58020ADF8000003208DF80200102047
:101DC0008DF8030069460248FFF7D5F908BD000009
:101DD000000C014070B505460024FFF7D7FF4021F5
:101DE0001848FFF7A4FA80211648FFF7A2FA062048
:101DF00000F0E3FD002618E06006040E40211148C3
:101E0000FFF797FA062000F0D8FD80210D48FFF774
:101E100085FA08B144F0010440210A48FFF787FA27
:101E2000062000F0CAFD701CC6B2082EE4DBFFF7E6
:101E3000BFFF15B9FFF796FF01E0FFF753FF2046FC
:101E400070BD0000000C014010B580210A48FFF76A
:101E500070FA40210848FFF76CFA062000F0ADFD4B
:101E600080210548FFF763FA40210348FFF75FFA36
:101E7000062000F0A2FD10BD000C014010B540216D
:101E80000A48FFF756FA80210848FFF750FA062063
:101E900000F093FD80210548FFF74BFA40210348ED
:101EA000FFF745FA062000F088FD10BD000C014048
:101EB00070B5044600251EE004F08000802804D19F
:101EC00080211048FFF735FA03E080210D48FFF725
:101ED0002EFA40210B48FFF72CFA062000F06DFD8A
:101EE00040210848FFF723FA062000F066FD60064F
:101EF000040E681CC5B2082DDEDB80210148FFF707
:101F000016FA70BD000C014008B501210820FFF74A
:101F100031FEC020ADF8000003208DF80200102033
:101F20008DF8030069460748FFF725F98021054829
:101F3000FFF7FFF940210348FFF7FBF9062000F007
:101F40003CFD08BD000C01402DE9FF5F04468946B9
:101F500042F60640FFF7ACFEFFF776FF8920FFF759
:101F6000A7FFFFF7D5FE0120FFF734FF8DF808002B
:101F70000120FFF72FFF8DF809000120FFF72AFF4E
:101F80008DF80A000120FFF725FF8DF80B000120D6
:101F9000FFF720FF8DF80C000020FFF71BFF8DF8E6
:101FA0000D00FFF76BFF022102A800F05DF89DF81D
:101FB0000A1088424DD102210DF10B0000F054F8B7
:101FC0009DF80D10884244D19DF809109DF8082015
:101FD00001EB022002F097FA074600221E4B02F0A6
:101FE000E5FA054600221D4B02F008F98246002260
:101FF0001B4B02F047F8CDE9000102F057FA2070C0
:102000009DF80C109DF80B2001EB022002F07BFAEA
:1020100007460022114B02F0F1F805460022114B51
:1020200002F0C4FA824602F041FA89F800002078F2
:1020300043F2D401884202DDD420207005E02078EC
:1020400010F57A6F01DA60202070002004B0BDE83E
:10205000F09F0120FAE7000000E06540E0FFEF405C
:10206000008046C00000594030B502460B46FF20B4
:10207000002113E0555C684008240BE000F0800567
:1020800025B1312585EA4005E8B201E04506280E74
:10209000651EECB2002CF1DC4D1CE9B29942E9DB83
:1020A00030BD704710B500F001F810BD0CB5002030
:1020B000019000903348006840F480303149086056
:1020C00000BF3048006800F4003000900198401CC8
:1020D0000190009818B90198B0F5A06FF1D1294886
:1020E000006800F4003010B10120009001E00020F1
:1020F00000900098012843D12348006840F0100068
:10210000214908600846006820F00300086008467E
:10211000006840F0020008601A48406819494860A9
:102120000846406848600846406840F4806048605F
:102130000846406820F47C1048600846406840F437
:10214000E81048600846006840F08070086000BFF2
:102150000C48006800F000700028F9D00948406879
:1021600020F00300074948600846406840F002003C
:10217000486000BF0348406800F00C000828F9D10F
:102180000CBD00000010024000200240704700001B
:1021900010B51348006840F0010011490860084676
:1021A0004068104908400E494860084600680E49DA
:1021B00008400B4908600846006820F48020086049
:1021C0000846406820F4FE0048604FF41F00886015
:1021D000FFF768FF4FF000600449086010BD000081
:1021E000001002400000FFF8FFFFF6FE08ED00E0DF
:1021F00010B540F22551054800F03AF820B10348E7
:1022000000F0F2F8C4B200BF10BD00000038014079
:1022100010B540F225510D4800F02AF8A0B10B4846
:1022200000F0E2F8C4B2204600F0E4F80848007874
:10223000B0F5007F07DA064801780078401C044AB0
:1022400010700448445400BF10BD0000004400401A
:10225000180000200801002021B1828942F40052B8
:10226000828104E082894DF6FF731A4082817047B3
:1022700070B50246002400230025002040F66A16AF
:10228000B14200D100BFC1F3421501F01F03012686
:1022900006FA03F3012D02D19689334006E0022DA0
:1022A00002D1168A334001E0968A33400C1201268F
:1022B00006FA04F41688344013B10CB1012000E092
:1022C000002070BDF0B50346002400260025002044
:1022D00040F66A17B94200D100BF1846C1F3421454
:1022E00001F01F06012707FA06F5012C01D10C3079
:1022F00004E0022C01D1103000E014301AB107685C
:102300002F43076002E00768AF430760F0BD00009D
:102310002DE9F04786B005460E460024A24600BFD0
:10232000A1460027B08900B100BF2F462C8A4CF689
:10233000FF700440F08804432C82AC894EF6F31001
:102340000440B08831890843718908430443AC8153
:10235000AC8A4FF6FF400440B0890443AC8201A828
:10236000FFF718FC1F48874202D1DDF810A001E0FA
:10237000DDF80CA0A88900F4004040B10AEBCA00C7
:1023800000EB0A1031684900B0FBF1F807E00AEBF6
:10239000CA0000EB0A1031688900B0FBF1F8642034
:1023A000B8FBF0F004012009642101FB1089A88921
:1023B00000F4004040B1322000EBC900B0FBF1F066
:1023C00000F00700044308E0322000EB091064210C
:1023D000B0FBF1F000F00F0004432C8106B0BDE823
:1023E000F08700000038014001468888C0F30800EB
:1023F0007047000000BF0549098801F080010029ED
:10240000F9D00249091D08807047000000380140DA
:102410000BE000BF0749098801F080010029F9D0CD
:102420000178044A121D1180401C01780029F0D166
:10243000704700000044004000BFFEE710B5C82010
:1024400000F0AFFAFEF788FE5EA0FEF77DFB40F2DB
:10245000DC5000F0A6FA5EA15F48FDF798FF10B1CE
:102460005EA0FDF7C3FEFEF777FE61A0FEF76CFBF2
:1024700000BF61A15848FDF78AFF0028F9D0FEF798
:102480006BFE5EA0FEF760FBC82000F08AFA00BF7A
:1024900059A15148FDF77BFF0028F9D0FEF75CFEFB
:1024A0005AA35DA25EA16448FDF7ACFE6248FEF748
:1024B0004BFBC82000F075FA00BF4FA14648FDF75E
:1024C00066FF0028F9D000BF5CA14348FDF75FFF1D
:1024D0000028F9D000BF5DA13F48FDF758FF002854
:1024E000F9D0FEF739FE5CA0FDF780FEC82000F0B1
:1024F00058FA5E4B5EA267A14F48FDF783FE4E4837
:10250000FEF722FBC82000F04CFA00BF3AA1324887
:10251000FDF73DFF0028F9D0FEF71EFE69A275A168
:102520004548FDF76FFE4448FEF70EFBC82000F05B
:1025300038FA00BF30A12848FDF729FF0028F9D05C
:10254000FEF70AFE72A281A13B48FDF75BFE3A4806
:10255000FEF7FAFAC82000F024FA00BF26A11E48B0
:10256000FDF715FF0028F9D0FEF7F6FD7EA0FDF778
:102570003DFE3FA284A13048FDF744FE2E48FEF701
:10258000E3FA00BF1CA11448FDF701FF0028F9D0B1
:10259000FEF7E2FD8AA0FDF729FE35A28FA12648AD
:1025A000FDF730FE2448FEF7CFFA00BF12A10A481B
:1025B000FDF7EDFE0028F9D0FEF7CEFD94A0FDF763
:1025C00015FE10BD41542B5253540D0A000000005B
:1025D0007265616479000000080100200D0A5769E6
:1025E0004669205265736574204F4B0D0A00000048
:1025F00041540D0A000000004F4B000041542B4392
:10260000574D4F44453D310D0A000000776232308E
:1026100030333133000000005265646D6900000002
:1026200041542B43574A41503D222573222C2225E9
:1026300073220D0A00000000080300205749464994
:1026400020434F4E4E4543544544000057494649A8
:1026500020474F54204950000D0A5749464920430E
:102660006F6E6E65637465640D0A0000405B000860
:102670003639653332303136633030636362366405
:1026800034623463663137665F657370383236366C
:102690000000000041542B4D5154545553455243B2
:1026A00046473D302C312C224E554C4C222C2225B5
:1026B00073222C222573222C302C302C22220D0A3E
:1026C0000000000036396533323031366330306314
:1026D0006362366434623463663137665F65737093
:1026E000383236365F305F305F3230323630343138
:1026F0003830390041542B4D515454434C49454EC8
:102700005449443D302C222573220D0A000000005C
:10271000623936303732616235622E7374312E6918
:102720006F7464612D6465766963652E636E2D73C5
:102730006F7574682D312E6D796875617765696381
:102740006C6F75642E636F6D0000000041542B4D5B
:10275000515454434F4E4E3D302C222573222C3180
:102760003838332C300D0A000D0A436F6E6E6563E6
:1027700074656420746F2048756177656920436CC7
:102780006F75640D0A00000041542B4D5154545391
:1027900055423D302C22246F632F64657669636552
:1027A000732F25732F7379732F70726F7065727426
:1027B0006965732F7265706F7274222C310D0A0077
:1027C0000D0A537562736372696265642072657085
:1027D0006F727420746F7069630D0A0041542B4D41
:1027E0005154545355423D302C22246F632F64655D
:1027F00076696365732F25732F7379732F636F6DFC
:102800006D616E64732F23222C310D0A00000000CD
:102810000D0A5375627363726962656420636F6D3C
:102820006D616E6420746F7069630D0A00000000B2
:10283000490050EAC12018BF04204A0D18BF40F0DB
:10284000010040F2FF72B2EB515F08BF40F002009E
:10285000012808BF052070472DE9F0414F1E00EB0D
:10286000C7010446D1E9000115461E4637F00602AD
:102870000DD02A46334601F099FE7F1E04EBC703B4
:10288000D3E9002301F0FEFB37F00602F1D1022F5D
:1028900025D0042F13D0062F18BFBDE8F0812A469B
:1028A000334601F083FED4E90A2301F0EBFB2A460C
:1028B000334601F07BFED4E9082301F0E3FB2A460E
:1028C000334601F073FED4E9062301F0DBFB2A4610
:1028D000334601F06BFED4E9042301F0D3FB2A4612
:1028E000334601F063FED4E9022301F0CBFB2A4614
:1028F000334601F05BFED4E90023BDE8F04101F06E
:10290000C1BB0000002213461046014901F076BC0D
:102910000000F03F01F0B6BB0022134610461146FE
:1029200001F06CBC40F2013200204FF0E04102F0B7
:10293000D2BC0000024A0020110702F0CCBC00000B
:1029400001FDFFFF00BF704710B5FEF7CDF947202E
:10295000FEF79AF9FEF7FEF90120FEF769F9044641
:102960004FF6FF7000EA04240020FEF761F92044CE
:1029700084B2FEF7D5F9204610BD10B5044600BF5D
:10298000FEF7B2F94620FEF77FF9FEF7E3F90028DB
:10299000F6D12046FEF778F9FEF7DCF9FEF7C0F92C
:1029A00010BD00B5034603E04FF47A7000F005F85F
:1029B000181EA3F10103F7D100BD00EBC001C9004F
:1029C0004FF0E0225161002191610521116100BFAA
:1029D0004FF0E021096901F480310029F8D0042189
:1029E0004FF0E0221161704700BF054A128802F0E3
:1029F0004002002AF9D0C2B2014B1B1D1A80704759
:102A000000380140FFF7C4FB4FF4E13001F0A2FAB7
:102A10004FF4E13001F04CFAFEF78CFFFAA20221EC
:102A20000846FFF755F8FFF709FDFEF7E9FEFAA2A1
:102A300001210846FFF74CF8FAA201210220FFF716
:102A400047F8FBA201210320FFF742F8FBA2012176
:102A50000420FFF73DF8FFF757FAFEF747FEFEF7B1
:102A60003DF8FEF79DF9FEF781F8FEF7B1FD012173
:102A70000846FFF77FF80121F348FEF707FCFEF751
:102A80004BFEFEF74BFD4FF4FA70FFF78AFFEF485D
:102A9000007808B9EEA000E0EFA00346F0A2F2A192
:102AA000F3A0FEF771FC3220FFF77BFFF9480078B6
:102AB000012801D1F8A000E0F8A00346F8A2EAA19D
:102AC000EBA0FEF761FC3220FFF76BFFF5480078C2
:102AD000012801D1F0A000E0F0A00346F2A2E2A19B
:102AE000E3A0FEF751FC3220FFF75BFFEF480078D0
:102AF000012801D1E8A000E0E8A00346ECA2DAA199
:102B0000DBA0FEF741FC3220FFF74BFFEA480378D9
:102B1000EAA2D5A1D6A0FEF713FC3220FFF741FFB1
:102B2000E948008803B2E9A2CFA1D1A0FEF708FCD2
:102B30003220FFF736FFE748008803B2E6A2CAA1B9
:102B4000CBA0FEF7FDFB3220FFF72BFFFEE3FEF7E5
:102B500079FCE44908700846007806287AD2DFE854
:102B600000F0F5037A98BAD2DF480078401CDE49BD
:102B7000087008460078022801DD00200870DA4855
:102B80000078B0B9FEF73CFEA3A201210846FEF78B
:102B90009FFFA4A201210220FEF79AFFA4A2012117
:102BA0000320FEF795FFA5A201210420FEF790FF68
:102BB00050E0CD480078012816D1FEF721FECBA2C7
:102BC00001210846FEF784FFCCA201210220FEF776
:102BD0007FFFCEA201210320FEF77AFFCFA20121C1
:102BE0000420FEF775FF35E0FEF70AFECFA20121B3
:102BF0000846FEF76DFFCFA201210220FEF768FF15
:102C0000CEA201210320FEF763FFCEA20121042002
:102C1000FEF75EFF8D48007808B98DA000E0CBA0DC
:102C2000024605210120FEF753FF0323A248027844
:102C300005210220FEF72AFF0323A348028805216D
:102C40001846FEF723FF0323A2480288052104202B
:102C5000FEF71CFF7AE0A4480078012818D17B48D1
:102C60000078401C7949087008460078012801DD89
:102C7000002008707548007808B9B6A000E0B7A039
:102C8000024606210120FEF723FF0120B549087006
:102C90005CE09548007801281CD17E48007808B98E
:102CA000012000E000207B4908700846007838B118
:102CB000FEF75EFDACA205210220FEF709FF06E04B
:102CC000FEF748FD75A205210220FEF701FF012055
:102CD000A44908703AE07548007808B9012000E07E
:102CE0000020724908700846007840B9FDF758FF87
:102CF000FEF74EFC69A207210320FEF7E9FE012042
:102D00009849087022E07848007801281DD165486C
:102D1000007808B9012000E00020624908700846E8
:102D2000007810B1FEF74CFC01E0FEF741FC5D4875
:102D3000007808B18CA000E058A0024605210420CC
:102D4000FEF7C6FE01208749087000BF00BF664835
:102D5000007860BB85498648FFF7F6F8032384486E
:102D6000027806210120FEF791FE03237F480278B6
:102D700006210220FEF78AFEFEF74AFC7D49086024
:102D80000846006802F09AF884B20323224605211F
:102D90001846FEF77BFEFFF7D7FD7749088004232E
:102DA0000846028807211846FEF770FEEDE04E48FF
:102DB0000078012826D12548007808B965A000E0F0
:102DC00066A0024606210120FEF782FE3148007807
:102DD00008B165A000E031A0024605210220FEF7FF
:102DE00077FE3248007808B15FA000E02BA00246D1
:102DF00007210320FEF76CFE2A48007808B15AA08C
:102E0000BEE0BBE0C1E0000057616974205374610B
:102E10007274696E6700000054656D703A2020205E
:102E20004300000048756D693A202020250000000D
:102E30004761733A202070706D0000004C6967682C
:102E4000743A2020206C7800000230002E00002010
:102E50004175746F000000004D616E75616C00007B
:102E60006D6F646500000000646973706C617900C7
:102E700036396533323031366330306363623664FD
:102E800034623463663137665F6573703832363664
:102E900000000000320000204F4E00004F46460068
:102EA00066616E00310000206C6564003000002017
:102EB000616C61726D0000003800002074656D70F7
:102EC0005F6D6178000000003A0000206761735F69
:102ED0006D6178003C0000206C696768745F6D6903
:102EE0006E0000002C0000202D0000204D6F646556
:102EF0003A202020202020202000000046616E3A49
:102F0000202020202020202020000000416C617221
:102F10006D3A202020202020200000004C45443A1B
:102F20002020202020202020200000004D6F643A27
:102F3000000000007448693A000000006748693AE0
:102F4000000000006C4C6F3A000000004D616E758F
:102F5000000000004175746F200000004D616E7527
:102F600020000000360000204F4E200025000020E9
:102F7000240000202800002026000020AFF2E400FA
:102F8000024605210420FEF7A3FDFE480078002834
:102F900069D00020FB490870FB48007810B9AFF2F7
:102FA000501001E0AFF250100346AFF24C12AFF2F6
:102FB0004811AFF24410FEF7E7F9F4480078012811
:102FC00002D1AFF22C1001E0AFF230100346AFF2A5
:102FD0003012AFF26C11AFF26810FEF7D5F9EC4881
:102FE0000078012802D1AFF2501001E0AFF2541086
:102FF0000346AFF24C12AFF29011AFF28C10FEF715
:10300000C3F9E4480078012802D1AFF2741001E05E
:10301000AFF278100346AFF26812AFF2B411AFF21C
:10302000B010FEF7B1F9DC480378AFF27012AFF2DE
:10303000C811AFF2C410FEF783F9D848008803B274
:10304000AFF27812AFF2E011AFF2DC10FEF778F9D0
:10305000D348008803B2AFF28012AFF2F411AFF29E
:10306000F010FEF76DF9CF480088401CCD4908806C
:10307000084600880A2833DB00200880CA48037805
:10308000CAA2AFF21C21AFF21820FEF759F9322084
:10309000FFF787FCC8480378C8A2AFF23421AFF22B
:1030A0003020FEF74DF93220FFF77BFCC648006860
:1030B00001F0E8FE04B22346C4A2AFF25421AFF2FD
:1030C0005020FEF73DF93220FFF76BFCC048008826
:1030D00003B2C0A2AFF27021AFF26C20FEF730F95C
:1030E000AC480078B8B1BD480078401CBB490870B6
:1030F00008460078032806DB00200870FDF758FD1D
:10310000FEF74EFA07E0B5480078012803D1FDF735
:1031100047FDFEF73DFAFEF75BF9B148007800285D
:103120007ED00020AE49087098480078AD490978F3
:1031300088420ED0AB480078944908700846007861
:1031400010B1FEF715FB01E0FEF704FB01208D49ED
:10315000087090480078A449097888420DD0A248A8
:1031600000788C4908700846007818B9FDF718FDFA
:10317000FEF70EFA012083490870854800789B49C4
:10318000097888420ED0994800788149087008462D
:10319000007810B1FEF714FA01E0FEF709FA0120F9
:1031A000784908707848007891490978884206D0B3
:1031B0008F48007874490870012072490870764879
:1031C00000788C490978884206D08A48007872498C
:1031D000087001206B49087070480088864909888A
:1031E000884206D0844800886C49088001206549DF
:1031F00008706B48008881490988884206D07F485A
:1032000000886749088001205E4908707C48007882
:10321000012834D15C48007818B9AFF2C82002E028
:1032200053E0AFF2C820024606210120FEF750FC11
:103230005648007810B1AFF2D02001E0AFF2A430D0
:10324000024605210220FEF743FC5248007810B1E7
:10325000AFF2EC2001E0AFF2BC30024607210320C0
:10326000FEF736FC4A48007810B1AFF2043001E0B6
:10327000AFF2D830024605210420FEF729FC604851
:103280000078022821D14048007810B9AFF24040C0
:1032900001E0AFF24830024605210120FEF718FC9C
:1032A00003233D48027805210220FEF7EFFB0323AC
:1032B0003A48028805211846FEF7E8FB0323384800
:1032C000028805210420FEF7E1FB2F480078002842
:1032D00056D10024344800782F490978884213DDFC
:1032E00001242C48007820B901202A49087025497A
:1032F00008702648007838B9012024490870FEF784
:1033000037FA01201F4908702F48006801F0D6FDE8
:1033100080B222490988884213DD01241D480078C3
:1033200020B901201B490870164908701748007819
:1033300038B9012015490870FEF71AFA0120114921
:103340000870234800881649098800E08DE088420B
:103350000ADA0F48007838B901200D490870FEF7E5
:103360002FF90120074908700F4800780A490978A9
:10337000884255DC1448006801F0A0FD80B241E0AD
:1033800070E00000360000202E00002032000020F7
:103390003100002030000020380000203A000020DA
:1033A0003C000020340000202400002074656D7073
:1033B00065726174757265002500002068756D691D
:1033C00064697479000000002800002067617300C0
:1033D000260000206C696768740000003700002038
:1033E0001E0000201A0000201B0000201C000020EE
:1033F0001D0000201F0000202000002022000020CF
:103400002D0000201A490988884209DC19480078F3
:10341000012805D1002017490870012016490870BD
:10342000164800881649098888420BDB1548007841
:10343000012807D1002013490870FEF7B9F80120D0
:103440000D4908700B48007858B90F4800780128DA
:1034500007D100200C490870FEF77CF901200649CD
:10346000087000BFC820FFF79CFAFFF770BB000090
:103470003A00002030000020360000202600002006
:103480003C00002031000020320000202DE9F04DEA
:103490001D460C4698B0174621F0004123F000432A
:1034A000002814BF4FF0010C4FF0000C0CEB440C43
:1034B000FE4A0CEB02064FEA620C66452BD33E0037
:1034C00018BF012606EB45061644F94A964222D358
:1034D000F84A53EA070C02D0944205D148B918B013
:1034E00000201146BDE8F08D002808BF4FF0000C09
:1034F00001D04FF0010C0CEB440212F5001F0AD86A
:10350000002F14BF4FF0010C4FF0000C0CEB4502E4
:1035100012F5001F07D918B03A462B462146BDE8E0
:10352000F04DFFF7F7B90022DFF88CA3002CB8BFED
:10353000534526DADFF884C36345A8BF022220DAA8
:10354000DFF870C39C451CDCDFF874C30CEB235C14
:10355000BCF1140F08DDCCF1340627FA06FC0CFA96
:1035600006F6BE420DD108E05FB9CCF1140623FA8D
:1035700006FC0CFA06F69E4203D10CF00102C2F1E1
:10358000020251EA000C19D1002D17DA002C18BFE5
:10359000022A01D0012A07D00220FCF7D0FF18B080
:1035A000BDE8F04DFFF7AEB90220FCF7C8FFFFF70A
:1035B000A9F918B081F00041BDE8F08DB7F1000C19
:1035C0006CD1534525D104F1804212F5801201BF20
:1035D00000280020B74918B008BFBDE8F08DB548F5
:1035E000884207DC002DA1BF6046294618B0BDE81F
:1035F000F08D07E0281E05DA80F0004118B0604623
:10360000BDE8F08DAF497944D1E9000118B0BDE8BB
:10361000F08DDFF8A0C2634525D1002D1FDA19B166
:10362000514512D1D8B909E0002840F0EC82A24AF5
:10363000214618B062F31E01BDE8F08D002021463E
:1036400018B060F31E01BDE8F08D08DA18B023460B
:10365000BDE8F04D02460020614600F0CFBD18B035
:103660002146BDE8F08D514518DAB5F1804F0DD0F7
:10367000A5F1005CBCF1FF5C10D1B4F1000C0DDBD6
:1036800018B06146BDE8F04D00F0ECBB234618B021
:103690000246BDE8F04D194600F088BF060024F050
:1036A000004C3BD1D9B1514533D1002C06DD002D62
:1036B000A1BF0020514618B0BDE8F08D002C01DDFF
:1036C000002D1BDB002C13DA002D11DB012A4FF03B
:1036D000000014BF78497C4918B0BDE8F08D022A7B
:1036E00018BF002C0AD0012A08D1002C06DA0AE003
:1036F000002CB8BF002D11DA012A04D0002018B028
:103700000146BDE8F08D18B000204FF00041BDE843
:10371000F08DA1F14050B0F17F601AD0012000EB94
:10372000E47050EA020421D0624C521E4FF0000BAC
:10373000104304BF4FF0000B644C654883427CDDAE
:10374000644A654893421FDD884217DB002D25DB64
:1037500037E0002C00DA4AB1022A0CBF01204FF0FA
:10376000FF3018B0BDE8F04D00F0CDBE0120FCF7F1
:10377000E6FE18B0BDE8F04DFFF7CEB84D4A8A42DC
:1037800002DC002D0ADC1CE0814202DA002D18DA8E
:1037900004E0484B994220DD002D12DD0220FCF7A9
:1037A000CEFEFFF7BFF805460E46002253465846A8
:1037B000214600F0FBFE18B066F31E012846BDE866
:1037C000F08D0220FCF7BBFEFFF7B4F80A46214655
:1037D00018B062F31E01BDE8F08D0022304661464C
:1037E00001F00AF980460E466FF0010201F073FD08
:1037F0004FF05532394B01F00DF84246334600F098
:10380000D5FE0022364B01F005F88246424633468B
:1038100004911046194600F0C9FE5246049B00F080
:10382000C5FE8A4600904FF0C0422E4B40463146BE
:1038300000F0BCFE2C4A2B4B00E027E0CDE906014E
:103840005146009800F0B2FE82460191274A284B6B
:103850004046314600F0AAFE5246019B01F0CCF8EA
:1038600082460B4602460591DDE9060100F00AFC9E
:10387000DDE9062300268846304601F0BDF85246B1
:10388000059B00F0C7FF024600F07EB90020B1F5AD
:10389000801F07DA35223046614601F01CFD0646DE
:1038A0006FF0340000EB215024E00000FFFF1F0008
:1038B000FFFF0F000000F03F0000F07F00004043DA
:1038C00001FCFFFFD62300000000F0FF0000F0BF66
:1038D0000000E0410000F043FFFFEF3F5555D53FAA
:1038E0000000E03F4715F73FFE822B6544DF5DF89F
:1038F0000BAE543EA0F2FF300190C1F3130040F034
:103900007F6141F040510291FE498842D8BF0020BA
:1039100004DDFD498142C8BF012001DD0D9008E0B2
:1039200000200D900198401C01900298A0F5801095
:1039300002900299F54878440B910D9900EBC10073
:10394000D0E900230F9330460A920B9901F054F806
:10395000CDE90601DDE90A2130460F9B00F092FB1C
:1039600002460B460020EA4900F048FC0591024659
:103970000B460090DDE9060100F018FE1490E548C2
:103980008A464FF0000878440299006812904FF080
:10399000005040EA61010D980F9B01EB804000F55B
:1039A000002109910A9A129801F026F832460B9BE1
:1039B00000F030FF4246534600F0F8FD0646029103
:1039C00040465146099B129A00F0F0FDDDE90623BE
:1039D00000F020FF3246029B01F00EF8059B009A92
:1039E00000F0E4FD0091149A0490534610461946E5
:1039F00000F0DCFD06460246C7480B460291062150
:103A00007844FEF729FFCDE90510029B32461046A7
:103A1000194600F0CBFDDDE9053200F0C7FD059148
:103A20000646534640461946149A00F02BFB009B6D
:103A3000049A00F0BBFD3246059B00F023FBCDE964
:103A40000510424653461046194600F0AFFD0022CD
:103A5000B24B02910A9000F015FBDDE9053200F04F
:103A600011FB0E464246AD4B404600F0C5FF029B9F
:103A70000A9A00F0C1FFDDE9053200F0CBFE4246B4
:103A800002910A9033461046514600F08FFDCDE971
:103A900006015346149A02990A9800F087FD8A4657
:103AA0000290334642460099049800F07FFD534649
:103AB000029A00F0E7FA82460B4602460591DDE9DC
:103AC000060100F0DFFADDE90623002088460646FD
:103AD00000F092FF5246059B00F09CFE8246099141
:103AE0004FF060428E4B3046414600F05FFD04903F
:103AF00006918C4A8A4B5046099900F057FD824640
:103B00000291894A894B3046414600F04FFD5246AA
:103B1000029B00F0B7FA864B7B440D9A03EBC2037D
:103B2000D3E9002300F0AEFA0E900791019800F05F
:103B3000EAFC0591DDE9061382460E9A049800F02E
:103B4000A1FA7C4A7A440D9B02EBC303D3E900231C
:103B50000093029200F096FA5246059B00F092FA0A
:103B60000026884652463046059B00F045FF009BE4
:103B7000029A00F041FF069B049A00F03DFF079B6C
:103B80000E9A00F047FE024600200B46029038468F
:103B9000294600F00BFD824601912B463846194616
:103BA000029A00F029FF3246434600F0FFFC5246DD
:103BB000019B00F067FA07468A463246434629468B
:103BC000029800F0F3FC05460E463A46534600F0D4
:103BD00059FA594A8846914221DBA8EB020353EA7D
:103BE000000210D12A46334600F006FFCDE9040159
:103BF000524A534B3846514600F044FADDE904235B
:103C000000F0D2FD21D20220FCF799FCFEF78AFEDB
:103C10000A46214618B062F31E01BDE8F08D494BFB
:103C200028F000429A4210D3474A08EB020353EAB5
:103C300000027FF4C6AD2A46334600F0DDFE3A4668
:103C4000534600F0B1FD7FF6BCAD0022019228F092
:103C500000403E493E4A01EB2051824223DA481C93
:103C60004FF4801121FA00F040443A4AC0F30A515F
:103C70007A44394BA1F2FF31CB4020EA0303C0F371
:103C8000130040F48010C1F11401C8401268019083
:103C9000B8F1000FBCBF404201902846314600F009
:103CA000ABFE05460E462A4633463846514600F0DE
:103CB000E9F94FF000084246284B4046059100F0D4
:103CC00075FCCDE90601264A264B4046059900F0D1
:103CD0006DFC009102902A4633464046059900F05B
:103CE0008BFE3A46534600F095FD1F4A1F4B00F0ED
:103CF0005DFC009B029A00F0C5F907468846024623
:103D00000B4635E08E9803007AB60B001E200000AB
:103D10000000F03F56200000841F00000000084013
:103D200009C7EE3FFD033ADCF5015B14E02F3EBE10
:103D30005C1E0000201E000000009040FE822B65EB
:103D40004715973C00CC904000346F3F01FCFFFFCB
:103D50000000E03F6C1D0000FFFF0F00432EE63F18
:103D6000396CA80C615C20BEEF39FAFE422EE63FAA
:103D7000DDE9060100F086F9DDE9062305460E4679
:103D800000F03AFE3A46434600F044FD0F462A460C
:103D9000334600901046194600F008FC8246024661
:103DA0002E4888460B4605217844FEF755FD5246BD
:103DB000434600F0FBFB2A46334600F02BFD8046CD
:103DC0008A463B4628463146009A00F0EFFB3B46C8
:103DD000009A00F057F90691009000224FF08043BE
:103DE0004046514600F008FE0F460C9042465346AE
:103DF0002846314600F0DAFB3B460C9A00F0FEF90B
:103E0000069B009A00F0F8FD2A46334600F0F4FDC8
:103E10000022134B00F0FEFC054601980E4601EB14
:103E200000510815002810DC28463146019A01F09F
:103E300052FAFEF7FDFC042808BFFEF77BFD28467A
:103E40003146019A01F047FA05460B4618B02A465A
:103E500058462146BDE8F04D00F0A8BB0C1C000000
:103E60000000F03F2DE9F04106460F4600F0DEFC71
:103E7000041E0D4618BF0120284320F00040C0F169
:103E80007F6000F1E040C00F0ED0301C18BF012051
:103E9000384320F00040C0F17F6000F1E040C00FE7
:103EA00004BF0120FCF74BFB20462946BDE8F0810A
:103EB00010B586B0044601214804FDF74BFE0121F0
:103EC0000420FDF757FE0420ADF8140003208DF800
:103ED000160018208DF8170005A91C48FDF74BF9AE
:103EE0000820ADF8140004208DF8170005A9174824
:103EF000FDF741F926208DF8000002208DF8010021
:103F00008DF8020001208DF803006846FDF740FCA3
:103F100001940020ADF80800ADF80A00ADF80C00DF
:103F2000ADF810000C20ADF80E0001A90848FEF70E
:103F3000EFF9012240F225510548FEF7C3F90121AE
:103F40000348FEF789F906B010BD000000080140E3
:103F50000044004010B586B00446012144F204003C
:103F6000FDF708FE4FF40070ADF8140003208DF843
:103F7000160018208DF8170005A91C48FDF7FBF85E
:103F80004FF48060ADF8140004208DF8170005A9E7
:103F90001648FDF7F0F825208DF8000003208DF875
:103FA00001008DF8020001208DF803006846FDF73E
:103FB000EFFB01940020ADF80800ADF80A00ADF861
:103FC0000C00ADF810000C20ADF80E0001A9084857
:103FD000FEF79EF9012240F225510548FEF772F9DD
:103FE00001210348FEF738F906B010BD0008014072
:103FF0000038014010B500290AD00878002807D001
:1040000005487844FCF74AFC002801D0002010BD88
:104010000248784410BD0000A21B00009A1B00005B
:1040200021F00042A2F16052B2F5801F01F000437E
:1040300028BFD2F17F6C0BD95FEA001C43EAC202B1
:1040400042EB507018BF704728BF20F00100704746
:10405000B2F5801FBCBF184670474FEA410C1CF5F3
:10406000001F02D2084601F058B870B500F048FBB6
:1040700000000089FFF7F6BF4FF00040A0F5800078
:104080007047000010B591EA030F48BF83F000436A
:1040900000F1BA84841A71EB030C05D2121943EBB8
:1040A0000C03001B61EB0C01DFF824E14FEA115413
:1040B000A4EB135C1EEA430F18BF9EEA445F73D063
:1040C00023EA0E03DCF1200E21EA045143F48013AD
:1040D00032D322FA0CFE10EB0E0023FA0CFE41EB59
:1040E0000E01CCF1200E03FA0EFE10EB0E0051F182
:1040F0000001B1F5801FCCF1200E32D201EB04514A
:1041000012FA0EF2BDE8104058BF7047401C38BF8D
:104110005FEA420218BF7047002814BF20F0010078
:1041200041F100014FEA410313F5001F38BF70470A
:10413000A1F1C04100F032BB012A43EB0302ACF114
:10414000200CDCF11F0E32BF4FF0000E23FA0CF3EF
:1041500010EB030041EB0451B4EB115FD0D0A1EBA5
:10416000045101F5801149085FEA300001EB045168
:104170000ED350F1000038BF12FA0EFE08D1BDE890
:104180001040C9E7401C38BF5FEA4202CAD1C3E70A
:10419000BDE810404FEA410313F5001F38BF7047D8
:1041A000A1F1C04100F0FABA9EEA445F08D011EADA
:1041B0005E0FBDE8104004BF01F0004100207047D1
:1041C000BDE8104070B500F09BFA00BF64FBBE3E36
:1041D0000000E0FF02494FF0000001F04AB800BFC4
:1041E0000000F87F491058BFC1F140415B1058BF33
:1041F000C3F140438B42EFF3008070472DE9C0418B
:1042000030B4DFF8A0C23CEA111418BF3CEA131422
:1042100000F0EC8081EA03051CEA111444EAD5742D
:1042200018BF1CEA131500F0C780A4EB05044FF07B
:10423000004545EAC12145EAC32341EA505143EA1A
:10424000525304F17F74994204F500344FEAC020C0
:104250004FEAC22208BF904200F09C804FEA1365EB
:104260000FF24016765D4FEA134506FB05F7C7F1DE
:10427000807706FB07F74FEAD737A7FB036876423C
:10428000C8F58038A7FB06CE38BFA8F1010807FBA8
:1042900008E64FF0000EA6FB028CE6FB03CEDCF135
:1042A000000CCEF1004E38BFAEF1010EA6FB0C584B
:1042B0004FF000074FF00005E6FB0E87A1FB08C694
:1042C000A0FB07CE16EB0E0645F10005E1FB0765E6
:1042D00015F1E04E7EBFA4F580345FEA46066D41DD
:1042E00016F1800745F100054FEA17274FEA0666E9
:1042F00047EA0567A6F1DE46B6F1805F4FEA15256D
:104300001FD9384624F0010C05EBC471BCF1FE6FD7
:1043100001EB0C1102D8F0BCBDE8008124425CBF67
:1043200001F5801E9EEAC47F02D4F0BCBDE8008186
:10433000244238D4F0BCA1F1C041BDE8004100F0F6
:104340002DBA4FEAD22242EA43524FEAD323A7FBC7
:1043500002864FEAD02040EA415007FB03661EEA7E
:104360000E0F4FEAD12105FB026658BFA6EB00569F
:10437000B6EB00564FEA520E4EEAC37E18EB0E0E15
:1043800056EB530EBDD518EB02085E417F1C55F16C
:104390000005B6E74FF480154FF000074FF0000618
:1043A0004FF00008ADE7F0BC4FF0000001F1C04154
:1043B00001F00041BDE8008111EA0C1F0CEA131561
:1043C00000D00CE013EA0C1F00F025804FF0000035
:1043D000F0BC81EA030101F00041BDE80081F0BCBE
:1043E000BDE8004181EA030100F0D8B9F0BCBDE8A6
:1043F000004170B500F084F9097EFC3E00F007B87A
:1044000081EA03014FF0000001F00041704781EAAA
:10441000030100F0C3B9F0BCBDE800414FF000005B
:1044200021497047FFFDFBF9F7F5F4F2F0EEEDEBF3
:10443000E9E8E6E4E3E1E0DEDDDBDAD8D7D5D4D3A2
:10444000D1D0CFCDCCCBCAC8C7C6C5C4C2C1C0BFEE
:10445000BEBDBCBBBAB9B8B7B6B5B4B3B2B1B0AFF4
:10446000AEADACABAAA9A8A8A7A6A5A4A3A3A2A1D8
:10447000A09F9F9E9D9C9C9B9A9999989797969593
:1044800095949393929191908F8F8E8E8D8C8C8B2F
:104490008B8A8989888887878685858484838382B7
:1044A000828181800000FF070000F87F4FEA1153EE
:1044B000A3F58063D3F11E03A8BFD3F1200C08DB62
:1044C0004FF0004242EAC12252EA505232FA03F05F
:1044D000704709420BD4102BC4BF0020704703F56E
:1044E000787CBCF1FF3F05D04FF0FF3070474FF0B4
:1044F0000000704770B500F003F900BF49922480B6
:1045000000207047F0E710F0004248BF4042B0FA88
:1045100080F310FA03F10AD0C3F11D0303F58063A1
:104520004FEA415002EB035202EBD12170474FF0AA
:104530000000704751EA030C17D41CF5801F58BFC8
:10454000BCF5801F00F10680994218BF704708BF74
:104550009042704707D711F5801F58BF13F5801F91
:1045600019D499427047894270471CF5801F08D5BD
:10457000BCF5801FF7D58B4218BF704708BF824239
:1045800070474FF4001C1CEB410F38BF1CEB430F6E
:1045900001D28B42704770B500F0B2F89224490006
:1045A0004FF000514FF08053FFF71CBEDFF848C1B9
:1045B00070B51CEA111E1EBF1CEA13159EEA0C0FF3
:1045C00095EA0C0F00F06F8081EA030423EA4C1394
:1045D0004EEAD47E21EA4C1141F4801143F4801359
:1045E000AE44A1FB024CA0FB0365AEF17F7E361901
:1045F00055EB0C05A1FB034C4CF10003A0FB021C86
:1046000016EB0C06654153F10003094218BF46F052
:10461000010613F4007F0BD14FEA03314FEA053056
:10462000340341EA155140EA16506FF003020AE0E4
:104630004FEAC3214FEAC520F40241EA555140EA4E
:1046400056506FF0020202EB2E4201EB025585EA52
:10465000CE710AD05FEA440C18BF24F0004450F138
:10466000000041F1000120EAD47040F2FE7C624576
:1046700000D270BDA84214BF4FF080444FF04044B8
:10468000002E08BF0024BEF1806FA8BFA1F1C04179
:10469000BDE8704080F282804FF0000001F1C0411F
:1046A00001F0004170479EEA0C0F0CEA131518BF89
:1046B00095EA0C0F06D04FF0000081EA030E0EF0D1
:1046C000004170BD00F01CF88900013E00F007B801
:1046D00000F009B84FEA430C5FEA5C5C08D081EA5D
:1046E000030100F05BB84FEA410C5FEA5C5CF6D175
:1046F0004FF00000014970470000FF070000F87FFD
:104700000EF1020E2EF0030E5EF8046B364205D455
:10471000012A43EB030515F5001F12D8012841EBD0
:10472000010C1CF5001F0CD80ED14FEAD17C15F5F9
:10473000001F0CEB4C0C0CF1020C08BF4CEBD37CB3
:1047400004E04FF0080C01E04FEAD37C0CEB4C0581
:1047500026FA05F606F00706B6F1040C06D20EEBB3
:10476000860CBDE870404CF0010C6047DFE80CF0AF
:10477000090B02024FF000414FF00000A1F50021AB
:1047800070BD19461046012851EB010418BFD4F53D
:10479000001484BF002001F0004170BD0808A0F59E
:1047A00000114FEA3101704753EA010C17D41CF590
:1047B000801F58BFBCF5801F00F106808B4218BFD8
:1047C000704708BF8242704707D713F5801F58BF54
:1047D00011F5801F19D48B4270479B4270471CF51E
:1047E000801F08D5BCF5801FF7D5994218BF7047C8
:1047F00008BF904270474FF4001C1CEB430F38BFBA
:104800001CEB410F01D2994270470FB40CBC03BCA2
:10481000FFF7C1BE91EA030F10B581F000413FF5EB
:1048200039AC83F0004300F0EFB800002DE9F0410F
:1048300001F5801CBCF5001FC0F2C3804FEA115C7B
:1048400021EA0C510CF1FD0C41F480115FEA5C0C83
:104850000CF5C07C01D3400049413DA4890241EAE6
:10486000905187028E0E0A0CA45D04FB04F602FB35
:1048700006F6C6F14046A4FB0662F60D46EA42265D
:1048800006FB06F4A4FB01235242C3F1404338BFA8
:104890005B1EA6FB02420024E6FB0324D20B42EA85
:1048A0004446A6FB0623A1FB02E2A3FB07E4A418EF
:1048B0004FF0000252F10002E3FB01426442C2F1F8
:1048C000404E38BFAEF1010EA6FB04234FF00002AC
:1048D000E6FB0E32A2FB03464FF00004B61954F17A
:1048E0000004E2FB0264A1FB06E6A4FB07E816EB6A
:1048F00008064FF0000858F10008E4FB0168764212
:10490000C8F1405838BFA8F10108A2FB06E4A3FB98
:1049100008E52D194FF0000454F10004E2FB08549F
:10492000A1FB05E6A7FB04E818EB06084FF000061C
:1049300056F10006E1FB048618F1200556F1000649
:10494000A809A8F11B08B10908F03F08B8F10A0F3F
:1049500040EA86601CD901EB0C51BDE8F08100BF34
:10496000FCF5EEE8E2DDD8D3CFCBC7C3C0BDB9B606
:10497000B4B1AEACA9A7A5A3A19F9D9B9A9896950B
:104980009392908F8D8C8B89888786858483828192
:10499000A0FB006800FB01F208EB4208B8EB872897
:1049A00007D5341858EB0104D5D5401C51F100014E
:1049B000D1E7341A78EB0104CDD4401E71F1000127
:1049C000C9E75FEA4C0C5FEA9C5C0DD105D34FF060
:1049D000000001F00041BDE8F081BDE8F04170B594
:1049E000FFF78EFE6DDBFFBEBDE8F0414FF000002B
:1049F000004970470000F87F10B591EA030F48BFE7
:104A000083F000433FF546AB841A71EB030C07D2E9
:104A100012198CF0004C43EB0C03001B61EB0C01F2
:104A2000DFF8A4E14FEA1154A4EB135C1EEA430F34
:104A300018BF9EEA445F00F0B08023EA6E03524242
:104A400021EA0451C3EB6E0338BF5B1EDCF1200E7C
:104A500025D322FA0CFE10EB0E0043FA0CFE41EBBC
:104A60000E01CCF1200E03FA0EFE10EB0E0051F1F8
:104A70000001CCF1200E29D412FA0EF201EB045100
:104A8000BDE8104058BF7047401C1CBFB2F1004F3A
:104A9000704700280CBF491C20F00100704712EB42
:104AA000020E43EB030218BF4FF0010E4EEA420222
:104AB000ACF1200CDCF11E0E54D943FA0CFE10EBC5
:104AC0000E0051F1FF31CCF11E0ED5D50EF1010EC5
:104AD00012FA0EFE404141EB010101EB445C5FEA3A
:104AE0005C5C10D910EBDE7001EB045138BFBEF1F5
:104AF000004FBDE8104018BF704700280CBF491C8C
:104B000020F00100704730D24FEAD42C11F500118B
:104B100024F400641BD0B1FA81F20B3AA41AA41E4B
:104B2000D2F12003914030FA03F31943904001EB96
:104B3000CC71002C01EB0451BDE81040A8BF7047B8
:104B400001F1C0414FF0000001F000417047B0FAA0
:104B500080F310FA03F100D110BDE41A173C4805A8
:104B6000C90AE4E701EB045110BD491001EB0451FF
:104B7000BDE810404FEA300002E04FF000017047FE
:104B80004A0008BF0042F8D0B2F5001F28BF7047A6
:104B900001F000414FF0000070479EEA445F07D0EB
:104BA00011EA5E0FBDE8104004BF002100207047ED
:104BB000BDE8104070B5FFF7A3FD00BF40DFF63E33
:104BC00083F00041104670470000E0FF43004FEAC9
:104BD000D30C4FEA3C0C43401FBF40070CF160511F
:104BE00013F0FE4F70471CF0006F03D100200CF053
:104BF000004170470CF0004343EA507010B540EAA2
:104C0000CC0000F044FA00BF000000924FEA00011F
:104C1000FFF7C4BD4FF000414FF00000A1F50021A7
:104C20007047000090EA010F48BF81F0004100F199
:104C3000B282421A3CBF801A89184FEAD0524FF014
:104C40007F4C1CEA410FA2EBD15318BF9CEA026FC4
:104C500000F03B804FF0004C4CEA00204CEA012170
:104C600021FA03FC10EB0C0C1ED202F1FF325FEABA
:104C70001C2040EBC25038BF70471CF07F0F4FEA3A
:104C8000400C18BFBCF17F4F38BF7047C3F1200301
:104C9000994008BF20F00100BCF17F4F38BF70473A
:104CA000A0F1C04000F039BA4FEA3C00000A40EBE6
:104CB000C25028BF1CF0FF0F4FEA400CE6D018BFCF
:104CC000BCF17F4F38BF7047EAE79CEA026F05D01E
:104CD00010EA5C0F08BF00F00040704710B500F00C
:104CE000D6F900BF64FBBE3E401058BFC0F1404043
:104CF000491058BFC1F140418142EFF30080704735
:104D00004FF47F0C1CEAD0121EBF1CEAD11392EAAA
:104D10000C0F93EA0C0F00F0858090EA010F48BF5A
:104D200042F4807240F4000C41F400002CF07F410A
:104D300020F07F4000B58142A2EB03020FF2081C75
:104D4000ACEB504EC0F100009EF800E04FEA4E0E72
:104D500000FB0EFC38BF49004FEA2C1C02F5FA029A
:104D60000CFB0EF34FEACE1E4FEA112C4FEAC12185
:104D70000EEB635E42EB22420EFB0CFC4FEA1C532F
:104D800000FB03114FEA112C4FEA01310EFB0CFC22
:104D90004FEADC4C00FB0C11C14228BF09184CEB58
:104DA00003335DF804EB10EB410143EBC250B2F565
:104DB0007C0F38BF704729D512F0F00F1CBF00F1EF
:104DC000C04000F000407047008182838485868760
:104DD00088898B8C8D8E8F919293959697999A9CBA
:104DE0009D9FA0A2A3A5A7A8AAACAEB0B2B3B5B729
:104DF000B9BCBEC0C2C5C7C9CCCED1D4D7D9DCDFFF
:104E0000E2E6E9ECF0F3F7FAFE0000004FEA400CAE
:104E10000CF1807CBCF17E4F28BF7047B0F1C040E0
:104E200000F07BB990EA010F0CEAD11348BF42F4BD
:104E30008072624538BF634507D213F47F0F16D0E6
:104E400080EA010000F00040704710B500F01FF943
:104E5000097EFC3E00F005B880EA010000F0004049
:104E6000704780EA010000F0004000F056B912F4EB
:104E70007F0F04BF0248704780EA010000F04DB97F
:104E80000000C07F41000B0ED3F19E0208D950F400
:104E900000034FEA032323FA02F048BF4042704761
:104EA00010B500F0F4F800BF49922480002070474C
:104EB0006FF0004282EA200070470000C10DD1F17E
:104EC0009E0206DB4FEA002343F0004323FA02F080
:104ED0007047004207D54FEA4001B1F1FE4F02D2C0
:104EE0004FF00000704710B500F0D1F849922480CF
:104EF000002070476FEA200070470000B0FA80F38E
:104F000010FA03F2C3F19D030AD0D90501EB122078
:104F1000530638BF704700F1010008BF20F00100C0
:104F20007047000050EA010C00F113801CF5000FDF
:104F300058BFBCF5000F01D48842704707D710F561
:104F4000000F58BF11F5000F15D4884270478942F1
:104F500070471CF5000F04D5BCF5000FF7D5814252
:104F600070474FF0807C1CEB400F38BF1CEB410FAB
:104F700001D28142704710B500F089F892244900AF
:104F80004FF000504FF08051FFF7AEBE4FF47F0C52
:104F90001CEAD0121EBF1CEAD11392EA0C0F93EA4E
:104FA0000C0F00F0478090EA010F48BF42F4807276
:104FB0004FF0004C4CEA00204CEA012102EB0302C6
:104FC000A0FB0113A2F50002002918BF43F0010362
:104FD0005B0028BF4FEA330342EB22425FEA132C07
:104FE0004CEBC2502EBFBCEB436FB2F57C0F704749
:104FF0004FEA036CBCF1004F08BF20F00100B2F58E
:105000007C0F38BF70470BD582F0FF0212F5803F4E
:10501000C8BF704700F1C040D8BF00F000407047E3
:1050200000F5000C5FEA4C0C48BF7047B0F1C0407F
:1050300000F073B890EA010F0CEAD11348BF42F4B4
:105040008072624538BF634504D280EA010000F0F7
:105050000040704710B500F01AF800BF8900013E0B
:1050600000F007B800F009B85FEA410C5FEA1C6C79
:1050700008D080EA010000F050B85FEA400C5FEA17
:105080001C6CF6D14FF00040A0F5800070470EF187
:10509000020E2EF0030E5EF8044B244204D44FEAB5
:1050A0004102B2F17F4F11D84FEA4003B3F17F4F75
:1050B0000CD80ED14FEAD07CB2F17F4F0CEB4C0CE8
:1050C0000CF1020C08BF4CEBD17C04E04FF0080C53
:1050D00001E04FEAD17C0CEB4C0324FA03F404F01A
:1050E0000704B4F1040C06D20EEB840CBDE81040AA
:1050F0004CF0010C6047DFE80CF0070802024FF0AB
:105100000040A0F5800010BD0846420018BFD2F153
:10511000807288BF00F0004010BDFF2141EAD050EE
:10512000C005704751EA000C00F113801CF5000F18
:1051300058BFBCF5000F01D48142704707D711F565
:10514000000F58BF10F5000F15D4814270478942F7
:1051500070471CF5000F04D5BCF5000FF7D5884249
:1051600070474FF0807C1CEB410F38BF1CEB400FA9
:1051700001D28842704780EA010081EA000180EA9A
:105180000100FFF7F8BE000090EA010F48BF81F070
:1051900000413FF54EAD421A04D882F00042A0EB28
:1051A000020011444FEAD0524FF07F4C1CEA410FED
:1051B000A2EBD15318BF9CEA026F4AD04FF0004CCB
:1051C0004CEA00204CEA012121FA03FCB0EB0C0C64
:1051D0000FD412F0FE0F36D05FEA4C001DD500123E
:1051E00040EBC25038BF70471CF03F0F18BF7047EC
:1051F0000BE0A2F101025FEA1C2040EBC25038BF75
:1052000070471CF07F0F18BF7047C3F1200399400F
:1052100014BF401E20F00100704780084FEA12239F
:1052200008BF7047B0FA80FCA2EB0C02CCF1280C4E
:1052300060FA0CF093EA122F04BF00EBC2507047E3
:105240004FEAC3707047130A5FEADC1008BF70476B
:10525000F6E79CEA026F04D010EA5C0F08BF00205A
:10526000704710B5FFF713FF40DFF63E81F00040B6
:1052700070470CF00F03092B08BF082000F059807D
:105280000A2B0BD0082B18BF704708BF1CF0400F2B
:105290000AD04FF000004FF0000170471CF0400FA3
:1052A00018BF4FF0004070471CF0100F08D020F0DE
:1052B000704300F07F4242EAD3014FEA43707047E7
:1052C00000F0604021F07F4242EA000201F07F409E
:1052D00040EA727070474FF0FF0C4CF4E06C1CEA2F
:1052E00011531CBF9CEA030C9445C2BFDA4201EB88
:1052F00002517047002B0DD0BCF1000F0FD0002AD7
:1053000001F00041A4BF41F0E04141F07F614FF066
:105310000000704701F000414FF00000704750EA74
:1053200001334FF09B0C18BF4CF0806C7EF452AFF1
:1053300070471CF4801F11D01CF4E02F03D06FEADB
:10534000CC31490070474FF04050EFF3008222F01B
:10535000704242EA000282F3008870474FF000007A
:105360007047000000000000000000000000000086
:105370000000000000F800000000000000333000D2
:10538000000000100C06100C0600000000000000D9
:10539000000040C07840C0784000043F04043F044F
:1053A0000400007088FC08300000001820FF211E57
:1053B0000000F008F000E018000000211C031E218E
:1053C0001E0000F00888700000001E212324192709
:1053D000211010160E000000000000000000000068
:1053E0000000000000E01804020000000007182080
:1053F000400000020418E0000000004020180700F0
:105400000000404080F0804040000202010F010295
:105410000200000000F0000000000101011F010176
:105420000100000000000000000080B070000000DB
:105430000000000000000000000000010101010167
:1054400001010000000000000000003030000000FA
:1054500000000000000080601804006018060100D1
:10546000000000E010080810E000000F10202010DD
:105470000F00001010F8000000000020203F202046
:1054800000000070080808887000003028242221DD
:105490003000003008888848300000182020201193
:1054A0000E000000C02010F8000000070424243F74
:1054B000240000F80888880808000019212020111D
:1054C0000E0000E0108888180000000F1120201145
:1054D0000E0000380808C83808000000003F00002F
:1054E00000000070880808887000001C222121221A
:1054F0001C0000E010080810E0000000312222111A
:105500000F00000000C0C0000000000000303000AC
:10551000000000000080000000000000806000002B
:105520000000000080402010080000010204081064
:105530002000404040404040400004040404040473
:105540000400000810204080000000201008040221
:105550000100007048080808F00000000030360123
:105560000000C030C828E810E000071827242314E2
:105570000B000000C038E0000000203C230202279E
:10558000382008F8888888700000203F20202011EB
:105590000E00C03008080808380007182020201026
:1055A000080008F808080810E000203F202020101C
:1055B0000F0008F88888E8081000203F20202320EA
:1055C000180008F88888E8081000203F2000030031
:1055D0000000C03008080838000007182020221EEC
:1055E000020008F808000008F808203F2101012106
:1055F0003F20000808F8080800000020203F202075
:10560000000000000808F8080800C08080807F00C3
:10561000000008F888C028180800203F200126381C
:10562000200008F8080000000000203F2020202073
:10563000300008F8F800F8F80800203F003F003F6D
:10564000200008F830C00008F808203F20000718A4
:105650003F00E01008080810E0000F102020201084
:105660000F0008F808080808F000203F2101010198
:105670000000E01008080810E0000F18242438503B
:105680004F0008F8888888887000203F2000030CAD
:1056900030200070880808083800003820212122B6
:1056A0001C00180808F8080818000000203F200017
:1056B000000008F808000008F808001F202020203B
:1056C0001F000878880000C83808000007380E015D
:1056D0000000F80800F80008F800033C0700073C49
:1056E0000300081868808068180820302C03032CF9
:1056F00030200838C800C83808000000203F2000CB
:10570000000010080808C83808002038262120208A
:105710001800000000FE020202000000007F40406E
:105720004000000C30C000000000000000010638FE
:10573000C00000020202FE000000004040407F0066
:10574000000000000402020204000000000000004B
:105750000000000000000000000080808080808049
:105760008080000202040000000000000000000031
:105770000000000080808080000000192422222286
:105780003F2008F8008080000000003F1120201119
:105790000E000000008080800000000E11202020FC
:1057A0001100000000808088F800000E11202010F9
:1057B0003F200000808080800000001F22222222E3
:1057C0001300008080F0888888180020203F202067
:1057D00000000000808080808000006B949494938F
:1057E000600008F8008080800000203F2100002039
:1057F0003F2000809898000000000020203F2020DB
:105800000000000000809898000000C08080807F29
:10581000000008F8000080808000203F24022D3026
:105820002000000808F8000000000020203F202091
:1058300000008080808080808000203F20003F200A
:10584000003F8080008080800000203F21000020F9
:105850003F200000808080800000001F202020204A
:105860001F00808000808000000080FFA1202011A8
:105870000E000000008080808000000E112020A01B
:10588000FF80808080008080800020203F212000D9
:1058900001000000808080808000003324242424C4
:1058A0001900008080E0808000000000001F2020A0
:1058B00000008080000000808000001F2020201059
:1058C0003F20808080000080808000010E3008062C
:1058D000010080800080008080800F300C030C303D
:1058E0000F0000808000808080000020312E0E316B
:1058F0002000808080000080808080818E7018066B
:10590000010000808080808080000021302C2221D6
:10591000300000000000807C020200000000003F18
:10592000404000000000FF00000000000000FF00F9
:1059300000000002027C800000000040403F0000A8
:105940000000000601010202040400000000000043
:105950000000000000000000000000000000F03F18
:10596000000000000000F83F000000000000000000
:105970000000004003B8E23F00000000000000000B
:1059800006D0CF43EBFD4C3E033333333333E33F99
:10599000FFAB6FDBB66DDB3F4D268F515555D53FC5
:1059A00001411DA96074D13F65DBC9934A86CD3F93
:1059B000EF4E454A287ECA3F3E5555555555C53F81
:1059C00093BDBE166CC166BF2CDE25AF6A56113F73
:1059D000F16BD2C541BDBBBED0A4BE726937663E75
:1059E000000000000000000041542B4D5154545061
:1059F00055423D302C22246F632F646576696365C0
:105A0000732F25732F7379732F636F6D6D616E64C0
:105A1000732F726573706F6E73652F726571756524
:105A200073745F69643D2573222C22222C302C3044
:105A30000D0A000041542B4D5154545055423D30F5
:105A40002C22246F632F646576696365732F257339
:105A50002F7379732F70726F706572746965732F0D
:105A60007265706F7274222C227B5C227365727671
:105A7000696365735C223A5B7B5C2273657276694D
:105A800063655F69645C223A5C2225735C225C2C4E
:105A90005C2270726F706572746965735C223A7B08
:105AA0005C2225735C223A5C2225735C227D7D5D3D
:105AB0007D222C302C300D0A0000000041542B4D6B
:105AC0005154545055423D302C22246F632F64654D
:105AD00076696365732F25732F7379732F70726FD7
